:1000000093C0ADC0ACC0ABC0AAC0A9C0A8C0A7C0B7
:10001000A6C0A6C0A4C0A3C0A2C0A1C0A0C09FC0CB
:100020009EC09DC09CC06E616E00696E66000040FF
:100030007A10F35A00A0724E18090010A5D4E800F7
:1000400000E87648170000E40B54020000CA9A3B0F
:10005000000000E1F5050000809698000000404295
:100060000F000000A0860100000010270000000023
:10007000E803000000006400000000000A00000027
:1000800000000100000000002C76D888DC674F08D3
:1000900023DFC1DFAE59E1B1B796E5E3E453C63AD9
:1000A000E651997696E8E6C28426EB898C9B62ED50
:1000B000407C6FFCEFBC9C9F40F2BAA56FA5F4900A
:1000C000055A2AF75C936B6CF9676DC11BFCE0E481
:1000D0000D47FEF520E6B500D0ED902E03009435D7
:1000E00077050080841E080000204E0A000000C82A
:1000F0000C333333330F986E12831141EF8D21147B
:10010000893BE65516CFFEE6DB18D1844B381BF74A
:100110007C1D901DA4BBE424203284725E228100E9
:10012000C9F124ECA1E53D2711241FBECFE5D4E0A1
:10013000DEBFCDBF10E0A0E6B0E0ECE9F4E102C024
:1001400005900D92AA3CB107D9F721E0AAECB0E0E6
:1001500001C01D92A233B207E1F70CD49DC950CF64
:1001600078941F920F920FB60F9211242F933F9302
:100170008F939F938091CC009091CD0001969093A6
:10018000CD008093CC002091CA003091CB002F5F2E
:100190003F4F3093CB002093CA0084389E4141F4F6
:1001A00098B381E0892788BB1092CD001092CC00D3
:1001B0008091CA009091CB0082349F4041F498B363
:1001C00082E0892788BB1092CB001092CA009F91D1
:1001D0008F913F912F910F900FBE0F901F90189508
:1001E0008CE080B986B7846086BF0895FC0184EAFC
:1001F00086BF06B607FEFDCF91B1987F9083089524
:1002000084E986BF089583B984EC86BF06B607FEED
:10021000FDCF81B1887FFB018083089583B984E895
:1002200086BF06B607FEFDCF81B1887FFB018083C4
:10023000089524EC26BF06B607FEFDCF23B1FC01CE
:10024000208381B1887FFB0180830895FC0184E8CD
:1002500086BF06B607FEFDCF91B1987FDB019C9368
:1002600083B18083089583B7826083BF81E089BFB3
:1002700012BE089588E18AB986E880BD10BC87E681
:1002800089B908955D9BFECF8CB90895CF93DF9314
:10029000EC018991882349F08D3011F08A3019F4EE
:1002A0008AE0F0DF8DE0EEDFF4CFDF91CF910895AB
:1002B0005F9BFECF8CB10895A0E1B0E0E1E6F1E0F4
:1002C00048C57C011B016A01FC01178216828381EB
:1002D00081FF2AC39E012F5F3F4F3901F7019381B0
:1002E000F10193FD859193FF81911F01882309F40A
:1002F00017C3853239F493FD859193FF81911F01D6
:10030000853231F4B70190E00ED856016501E6CF91
:1003100010E0512C912CFFE1F915D8F08B3279F0D7
:1003200038F4803279F08332A1F4F92DF0612EC0D7
:100330008D3261F0803369F4292D21602DC0392D73
:100340003260932E892D8460982E2AC0E92DE860B2
:1003500015C097FC2DC020ED280F2A3088F496FE9A
:1003600006C03AE0139F200D1124122F19C08AE015
:10037000589E200D1124522EE92DE0629E2E10C0B1
:100380008E3231F496FCCCC2F92DF0649F2E08C059
:100390008C3621F4292D2068922E02C0883641F433
:1003A000F10193FD859193FF81911F018111B3CFDD
:1003B0009BEB980F933020F4992D9061805E07C0DD
:1003C0009BE9980F933008F059C1992D9F7E96FFB5
:1003D00016E09F73992E853619F49064992E08C003
:1003E000863621F4392F3068932E02C01111115036
:1003F00097FE07C01C3350F444244394410E27E079
:100400000BC0183038F027E017E005C027E09CE368
:10041000492E02C0212F412C560184E0A80EB11CA8
:10042000F6016081718182819381042DA30186D6BA
:100430006C01F981FC87F0FF02C0F3FF06C091FC5C
:1004400006C092FE06C000E205C00DE203C00BE24A
:1004500001C000E08C858C7019F0011143C280C28C
:1004600097FE10C04C0CFC85F4FF04C08A818133D8
:1004700009F44A94141474F528E0241578F588E0FA
:10048000482E2CC096FC2AC0812F90E08C159D052B
:100490009CF03CEFC3163FEFD30674F0892D8068C3
:1004A000982E0AC0E2E0F0E0EC0FFD1FE10FF11D15
:1004B0008081803319F411501111F4CF97FE0EC0D2
:1004C00044244394410E812F90E0C816D9062CF4A1
:1004D0001C1904C04424439401C010E097FE06C0D8
:1004E0001C141D0434F4C601019605C085E090E09B
:1004F00002C081E090E001110196112331F0212F1B
:1005000030E02F5F3F4F820F931F252D30E0821781
:10051000930714F4581A01C0512C892D897041F4A5
:10052000552031F0B70180E290E0FDD65A94F8CF23
:10053000002321F0B701802F90E0F5D693FC08C08E
:10054000552031F0B70180E390E0EDD65A94F8CF12
:1005500097FE4AC04601D7FE02C0812C912CC601ED
:1005600088199909F301E80FF91FFE87ED879601B5
:1005700024193109388B2F87012F10E0119501952F
:1005800011093FEF8316930621F4B7018EE290E044
:10059000CAD6C814D9044CF08F8598898815990556
:1005A00024F4ED85FE85818101C080E3F1E08F1A9E
:1005B00091082D853E852F5F3F4F3E872D87801602
:1005C000910624F0B70190E0AED6DBCFC814D90471
:1005D00041F49A81963320F4953319F43C8534FF25
:1005E00081E3B70190E048C08A81813319F09C858E
:1005F0009F7E9C87B70190E096D6111105C094FCB0
:1006000016C085E690E015C0B7018EE290E08BD66B
:100610001E5F82E001E0080FF301E80FF11D808109
:10062000B70190E080D6802F0113F4CFE8CF85E4A6
:1006300090E0B70178D6D7FC06C0C114D10441F4CC
:10064000EC85E4FF05C0D194C194D1088DE201C0CE
:100650008BE2B70190E067D680E32AE0C216D104AE
:100660002CF08F5FFAE0CF1AD108F7CFB70190E0F6
:100670005AD6B701C601C09656D649C1833631F065
:10068000833779F0833509F052C01FC0560132E03C
:10069000A30EB11CF6018081898301E010E06301A3
:1006A00011C05601F2E0AF0EB11CF601C080D1803E
:1006B00096FE03C0612F70E002C06FEF7FEFC601AE
:1006C00027D68C01F92DFF7713C0560122E0A20E28
:1006D000B11CF601C080D18096FE03C0612F70E08E
:1006E00002C06FEF7FEFC60101D68C01F92DF068D3
:1006F0009F2EF3FD18C0852D90E00817190798F478
:10070000B70180E290E00FD65A94F5CFF60197FC3E
:10071000859197FE81916F01B70190E004D6511049
:100720005A94015011090115110581F7F0C0843662
:1007300011F0893659F5560197FE09C024E0A20E42
:10074000B11CF60160817181828193810AC0F2E05F
:10075000AF0EB11CF60160817181072E000C880B71
:10076000990BF92DFF769F2E97FF09C090958095E4
:10077000709561957F4F8F4F9F4FF0689F2E2AE0B5
:1007800030E0A3012BD6C82EC6183EC0092D8537F0
:1007900021F40F7E2AE030E01DC0097F8F3691F0F2
:1007A00018F4883559F0BCC0803719F0883711F03B
:1007B000B7C0006104FF09C0046007C094FE08C010
:1007C000066006C028E030E005C020E130E002C04D
:1007D00020E132E0560107FF09C084E0A80EB11CF9
:1007E000F601608171818281938108C0F2E0AF0ED1
:1007F000B11CF6016081718180E090E0A301EED52B
:10080000C82EC6180F77902E96FE0BC0092D0E7FAE
:10081000C11650F494FE0AC092FC08C0092D0E7E49
:1008200005C0DC2C092D03C0DC2C01C0D12E04FF37
:100830000DC0FE01EC0DF11D8081803311F4097EA5
:1008400009C002FF06C0D394D39404C0802F8678D9
:1008500009F0D39403FD10C000FF06C01C2DD51471
:1008600078F4150D1D190CC0D51450F4B70180E2B1
:1008700090E059D5D394F8CFD51410F45D1801C089
:10088000512C04FF0FC0B70180E390E04CD502FF6C
:1008900016C001FD03C088E790E002C088E590E043
:1008A000B7010CC0802F867851F001FF02C08BE2A7
:1008B00001C080E207FD8DE2B70190E034D5C1169A
:1008C00030F4B70180E390E02ED51150F8CFCA94F0
:1008D000F301EC0DF11D8081B70190E024D5C1102A
:1008E000F6CF15C0F4E0F51550F584E0581A93FEE4
:1008F0001EC0011125C02C8523FF27C006E210E091
:10090000392D3071932EF8018491811121C0552029
:1009100009F4FCCCB70180E290E005D55A94F7CFFA
:10092000F7018681978123C08FEF9FEF20C0B70129
:1009300080E290E0F8D45A945110F9CFDACF512CDC
:10094000B701802F90E0EFD4D6CF0AE210E0D8CFE5
:1009500091108052B70190E0E6D40F5F1F4FD3CFC4
:1009600023E0251510F483E0C1CF512CC4CF60964D
:10097000E2E10BC2CF93DF93CDB7DEB7C359D140CD
:100980000FB6F894DEBF0FBECDBFCE56DE4F188235
:10099000C259D1408E010F561E4FF801108287B305
:1009A000836087BB60DC66DC1BDC7894CE018D56EF
:1009B0009E4F1CDCBE016D567E4F80ED2FDCBE01CC
:1009C0006D567E4F8BE62ADCBE016D567E4F80E071
:1009D00025DC84E986BF34E9D32E43E7842E40E04A
:1009E000942E50E9652E50E0752E6DEA462E60E09B
:1009F000562E8BE147DC8BE545DC81E343DC8AE462
:100A000041DC8BE13FDC80E690E040DC68E670E0B2
:100A10008EEC90E076D48EEC90E038DCCE0101963E
:100A20007C015C01CE018D569E4FE0DBBE016D5610
:100A30007E4F80EDF3DBBE016D567E4F8BE3EEDB28
:100A4000CE018D569E4FD2DBBE016D567E4F81ED9D
:100A5000E5DBBE016D567E4FCE018E569E4FF6DB16
:100A6000D6BECE018D569E4FC1DBBE016D567E4F68
:100A700080EDD4DBBE016D567E4F8CE3CFDBCE0123
:100A80008D569E4FB3DBBE016D567E4F81EDC6DBAA
:100A9000BE016D567E4FC801D9DBD6BECE56DE4FA5
:100AA0006881C259D140062E000C770B762F66273D
:100AB000F8018081082E000C990B682B792B072EEA
:100AC000000C880B990B4BD220E030E040E858E353
:100AD000D2D2F50161937193819391935F010E17C7
:100AE0001F0709F09FCF570160E070E0CB01F501CF
:100AF00021913191419151915F0163D10A151B05FB
:100B0000B1F720E030E048EC52E4BFD19F938F93DF
:100B10007F936F939F928F928EEC90E09F938F9331
:100B20003ED48EEC90E0B2DB0FB6F894DEBF0FBE81
:100B3000CDBF5701CE018D569E4F58DBBE016D567D
:100B40007E4F80ED6BDBBE016D567E4F8DE366DB25
:100B5000CE018D569E4F4ADBBE016D567E4F81ED14
:100B60005DDBBE016D567E4FCE018E569E4F6EDB15
:100B7000D6BECE018D569E4F39DBBE016D567E4FDF
:100B800080ED4CDBBE016D567E4F8EE347DBCE0120
:100B90008D569E4F2BDBBE016D567E4F81ED3EDBA9
:100BA000BE016D567E4FC80151DBD6BECE56DE4F1C
:100BB0006881C259D140062E000C770B762F66272C
:100BC000F8018081082E000C990B682B792B072ED9
:100BD000000C880B990BC3D120E030E040E858E3CB
:100BE0004AD2F50161937193819391935F010E173E
:100BF0001F0709F09FCF570160E070E0CB01F501BE
:100C000021913191419151915F01DBD00A151B0572
:100C1000B1F720E030E048EC52E437D19F938F9356
:100C20007F936F937F926F928EEC90E09F938F9360
:100C3000B6D38EEC90E02ADB0FB6F894DEBF0FBE81
:100C4000CDBF5701CE018D569E4FD0DABE016D56F5
:100C50007E4F80EDE3DABE016D567E4F8FE3DEDA24
:100C6000CE018D569E4FC2DABE016D567E4F81ED8C
:100C7000D5DABE016D567E4FCE018E569E4FE6DA16
:100C8000D6BECE018D569E4FB1DABE016D567E4F57
:100C900080EDC4DABE016D567E4F80E4BFDACE012E
:100CA0008D569E4FA3DABE016D567E4F81EDB6DAAA
:100CB000BE016D567E4FC801C9DAD6BECE56DE4F94
:100CC0006881C259D140062E000C770B762F66271B
:100CD000F8018081082E000C990B682B792B072EC8
:100CE000000C880B990B3BD120E030E040E858E342
:100CF000C2D1F50161937193819391935F010E17B6
:100D00001F0709F09FCF60E070E0CB01F701219150
:100D10003191419151917F0154D0E016F106B1F724
:100D200020E030E048EC52E4B0D09F938F937F9363
:100D30006F935F924F928EEC90E09F938F932FD39F
:100D40008EEC90E0A3DA0FB6F894DEBF0FBECDBFF5
:100D500050CE2F923F924F925F926F927F928F92DE
:100D60009F92AF92BF92CF92DF92EF92FF920F933A
:100D70001F93CF93DF93CDB7DEB7CA1BDB0B0FB644
:100D8000F894DEBF0FBECDBF09942A883988488801
:100D90005F846E847D848C849B84AA84B984C88497
:100DA000DF80EE80FD800C811B81AA81B981CE0F8E
:100DB000D11D0FB6F894DEBF0FBECDBFED01089573
:100DC0005058BB27AA270ED01CC10DD130F012D12C
:100DD00020F031F49F3F11F41EF402C10EF4E095AF
:100DE000E7FBF8C0E92F1ED180F3BA17620773073B
:100DF0008407950718F071F49EF536C10EF4E0955E
:100E00000B2EBA2FA02D0B01B90190010C01CA01C4
:100E1000A0011124FF27591B99F0593F50F4503E6F
:100E200068F11A16F040A22F232F342F4427585F61
:100E3000F3CF469537952795A795F0405395C9F779
:100E40007EF41F16BA0B620B730B840BBAF0915031
:100E5000A1F0FF0FBB1F661F771F881FC2F70EC0D0
:100E6000BA0F621F731F841F48F4879577956795A3
:100E7000B795F7959E3F08F0B3CF9395880F08F08C
:100E80009927EE0F9795879508950CD0BAC0B2D0E8
:100E900040F0A9D030F021F45F3F19F09BC0511110
:100EA000E4C09EC0BFD098F39923C9F35523B1F392
:100EB000951B550BBB27AA2762177307840738F0C9
:100EC0009F5F5F4F220F331F441FAA1FA9F333D028
:100ED0000E2E3AF0E0E830D091505040E695001CDC
:100EE000CAF729D0FE2F27D0660F771F881FBB1F98
:100EF000261737074807AB07B0E809F0BB0B802D72
:100F0000BF01FF2793585F4F2AF09E3F510568F0BD
:100F100061C0ABC05F3FECF3983EDCF386957795FC
:100F20006795B795F7959F5FC9F7880F911D9695BF
:100F3000879597F90895E1E0660F771F881FBB1F1B
:100F4000621773078407BA0720F0621B730B840BC8
:100F5000BA0BEE1F88F7E0950895E89409C097FB57
:100F60003EF490958095709561957F4F8F4F9F4F80
:100F70009923A9F0F92F96E9BB279395F6958795C4
:100F800077956795B795F111F8CFFAF4BB0F11F487
:100F900060FF1BC06F5F7F4F8F4F9F4F16C088232E
:100FA00011F096E911C0772321F09EE8872F762F64
:100FB00005C0662371F096E8862F70E060E02AF0A5
:100FC0009A95660F771F881FDAF7880F9695879591
:100FD00097F9089597F99F6780E870E060E00895B9
:100FE0009FEF80EC089500240A9416161706180641
:100FF0000906089500240A9412161306140605061D
:101000000895092E0394000C11F4882352F0BB0FAD
:1010100040F4BF2B11F460FF04C06F5F7F4F8F4F10
:101020009F4F089557FD9058440F551F59F05F3F4B
:1010300071F04795880F97FB991F61F09F3F79F0FA
:1010400087950895121613061406551FF2CF46957C
:10105000F1DF08C0161617061806991FF1CF8695FE
:101060007105610508940895E894BB2766277727E2
:10107000CB0197F908950BD0C4CFB5DF28F0BADFC4
:1010800018F0952309F0A6CFABCF1124EECFCADF1D
:10109000A0F3959FD1F3950F50E0551F629FF0018B
:1010A000729FBB27F00DB11D639FAA27F00DB11DE4
:1010B000AA1F649F6627B00DA11D661F829F22276D
:1010C000B00DA11D621F739FB00DA11D621F839FF4
:1010D000A00D611D221F749F3327A00D611D231FCA
:1010E000849F600D211D822F762F6A2F11249F5718
:1010F00050408AF0E1F088234AF0EE0FFF1FBB1F3B
:10110000661F771F881F91505040A9F79E3F5105D9
:1011100070F060CFAACF5F3FECF3983EDCF386958A
:1011200077956795B795F795E7959F5FC1F7FE2B84
:10113000880F911D9695879597F90895283008F0A6
:1011400027E03327DA01990F311D87FD9160009662
:101150006105710539F432602E5F3D9330E32A95C5
:10116000E1F708959F3F30F080387105610509F07F
:101170003C5F3C5F3D93913008F08068911DDF93A8
:10118000CF931F930F93FF92EF92192F987F96950D
:10119000E92F96959695E90FFF27E857FF4F992776
:1011A0003327EE24FF24A701E70105900894079454
:1011B00028F4360FE71EF81E491F511D660F771FD2
:1011C000881F991F0694A1F70590079428F4E70E4D
:1011D000F81E491F561FC11D770F881F991F661FD4
:1011E0000694A1F70590079428F4F80E491F561F9E
:1011F000C71FD11D880F991F661F771F0694A1F77F
:101200000590079420F4490F561FC71FD81F990F48
:10121000661F771F881F0694A9F784911095177091
:1012200041F0D695C79557954795F794E7941A9549
:10123000C1F7EEE2F0E06894159015913591659153
:10124000959105907FE27395E118F10A430B560BD7
:10125000C90BD009C0F7E10CF11E431F561FC91F6F
:10126000D01D7EF4703311F48A95E6CFE8940150D6
:1012700030F0080F0AF40027021708F4202F2395F6
:10128000022F7A3328F079E37D932A95E9F710C08D
:101290007D932A9589F606949795679537951795C6
:1012A0001794E118F10A430B560BC90BD00998F0BB
:1012B00023957E9173957A3308F070E37C93201325
:1012C000B8F77E9170617D9330F0839571E37D93E3
:1012D00070E32A95E1F71124EF90FF900F911F9191
:1012E000CF91DF91992787FD90950895FC01059096
:1012F000615070400110D8F7809590958E0F9F1F18
:101300000895FB01DC0101900D920020E1F70895A2
:10131000FC016150704001900110D8F780959095C4
:101320008E0F9F1F08950F931F93CF93DF93FB01A1
:10133000238121FD03C08FEF9FEF2CC022FF16C039
:1013400046815781248135814217530744F4A08197
:10135000B1819D012F5F3F4F318320838C93268184
:1013600037812F5F3F4F3783268314C08B01EC01F9
:10137000FB010084F185E02D0995892BE1F6D80168
:1013800016968D919C911797019617969C938E9324
:101390001697CE01DF91CF911F910F910895AEE086
:1013A000B0E0E4EDF9E0E3CC0D891E8986E08C83A2
:1013B0001A8309838FEF9FE79E838D83AE01475E7B
:1013C0005F4F6F89788DCE01019676D7EF81F885D2
:1013D000E00FF11F10822E96E4E0E5CCFA01AA2777
:1013E000283051F1203181F1E8946F936E7F6E5F68
:1013F0007F4F8F4F9F4FAF4FB1E03ED0B4E03CD016
:10140000670F781F891F9A1FA11D680F791F8A1FF8
:10141000911DA11D6A0F711D811D911DA11D20D05F
:1014200009F468943F912AE0269F11243019305D19
:101430003193DEF6CF010895462F4770405D41930A
:10144000B3E00FD0C9F7F6CF462F4F70405D4A3357
:1014500018F0495D31FD4052419302D0A9F7EACF1F
:10146000B4E0A6959795879577956795BA95C9F74E
:1014700000976105710508959B01AC010A2E069441
:101480005795479537952795BA95C9F7620F731FFA
:0C149000841F951FA01D0895F894FFCF45
:10149C005B31303B313048004E455720444154417C
:1014AC00200D00205820616363656C65726F6D655B
:1014BC00746572202D2D3E2025332E3466200D00B0
:1014CC00205920616363656C65726F6D657465721C
:1014DC00202D2D3E2025332E3466200D005A206100
:1014EC006363656C65726F6D65746572202D2D3E3E
:0A14FC002025332E3466200D000079
:00000001FF
